:100000000C94B7000C94CC000C94CC000C94CC0055
:100010000C94CC000C94CC000C94CC000C94CC0030
:100020000C94CC000C94CC000C94CC000C94CC0020
:100030000C94CC000C94CC000C94CC000C94CC0010
:100040000C94CC000C94CC000C94CC000C94CC0000
:100050000C94CC00570239023B023D023F024102A0
:1000600043024502470249024B024D024F02510230
:100070005302550200407A10F35A00A0724E18093C
:100080000010A5D4E80000E87648170000E40B54FF
:10009000020000CA9A3B000000E1F50500008096CE
:1000A0009800000040420F000000A0860100000000
:1000B000102700000000E8030000000064000000BA
:1000C00000000A00000000000100000000002C7683
:1000D000D888DC674F0823DFC1DFAE59E1B1B7969E
:1000E000E5E3E453C63AE651997696E8E6C28426FB
:1000F000EB898C9B62ED407C6FFCEFBC9C9F40F2D7
:10010000BAA56FA5F490055A2AF75C936B6CF96752
:100110006DC11BFCE0E40D47FEF520E6B500D0ED17
:10012000902E0300943577050080841E080000207F
:100130004E0A000000C80C333333330F986E12831D
:100140001141EF8D2114893BE65516CFFEE6DB18F1
:10015000D1844B381BF77C1D901DA4BBE4242032B6
:1001600084725E228100C9F124ECA1E53D271124AF
:100170001FBECFE5D8E0DEBFCDBF10E0A0E6B0E007
:10018000E2EAF3E102C005900D92A438B107D9F775
:100190000E9420040C94CF090C940000683008F0F1
:1001A0006FC0843008F06CC0813001F130F08230D3
:1001B000B1F1833009F44CC00895413059F42AB3A9
:1001C00081E090E002C0880F991F6A95E2F7822BC8
:1001D0008ABB08952AB381E090E002C0880F991F7E
:1001E0006A95E2F7809582238ABB0895413059F4DD
:1001F00027B381E090E002C0880F991F6A95E2F76B
:10020000822B87BB089527B381E090E002C0880F5E
:10021000991F6A95E2F78095822387BB0895413044
:1002200059F424B381E090E002C0880F991F6A95C9
:10023000E2F7822B84BB089524B381E090E002C0F2
:10024000880F991F6A95E2F78095822384BB0895F1
:10025000413059F421B381E090E002C0880F991F2A
:100260006A95E2F7822B81BB089521B381E090E08B
:1002700002C0880F991F6A95E2F78095822381BB9F
:100280000895683008F06FC0843008F06CC0813089
:1002900001F130F08230B1F1833009F44CC008959F
:1002A000413059F42BB381E090E002C0880F991FD0
:1002B0006A95E2F7822B8BBB08952BB381E090E027
:1002C00002C0880F991F6A95E2F7809582238BBB45
:1002D0000895413059F428B381E090E002C0880FBE
:1002E000991F6A95E2F7822B88BB089528B381E0B5
:1002F00090E002C0880F991F6A95E2F780958223EB
:1003000088BB0895413059F425B381E090E002C0E4
:10031000880F991F6A95E2F7822B85BB089525B354
:1003200081E090E002C0880F991F6A95E2F78095FE
:10033000822385BB0895413059F422B381E090E0D7
:1003400002C0880F991F6A95E2F7822B82BB08953D
:1003500022B381E090E002C0880F991F6A95E2F70E
:100360008095822382BB0895683070F5843070F5E3
:10037000813079F028F08230A9F08330E1F028C094
:1003800089B390E002C0959587956A95E2F78170F0
:10039000089586B390E002C0959587956A95E2F737
:1003A0008170089583B390E002C0959587956A9512
:1003B000E2F78170089580B390E002C0959587952B
:1003C0006A95E2F78170089580E0089580E00895CD
:1003D00080E008951F93CF93DF9340E064E081E0D5
:1003E0000E94CE0040E065E081E00E94CE0040E047
:1003F00066E081E00E94CE0040E067E081E00E947C
:10040000CE0040E062E083E00E94CE0040E063E086
:1004100083E00E94CE0040E064E083E00E94CE00D2
:1004200040E065E083E00E94CE00D0E014E01D0FC4
:1004300041E0612F81E00E94CE0040E0612F81E029
:100440000E944101C0E062E06C0F83E00E94B401B1
:1004500081112FC0CF5FDD0FDD0FCD0F8C2F90E00E
:10046000FC013197E031F105B8F5E65DFF4F0C94E2
:100470000007C8E031C0C9E02FC0CFE22DC0C4E002
:100480002BC0C5E029C0C6E027C0CAE225C0C1E034
:1004900023C0C2E021C0C3E01FC0CDE21DC0C3E63F
:1004A0001BC0C0E019C0CDE317C0CBE215C0C7E048
:1004B00013C0CF5FC43039F640E0612F81E00E9465
:1004C000CE0083EC99E00197F1F700C00000DF5FF8
:1004D000D43009F0ABCFA9CF8C2FDF91CF911F91F2
:1004E0000895CF93C82F40E061E080E00E94410171
:1004F00089EF90E00197F1F700C0000041E062E071
:1005000080E00E94410189EF90E00197F1F700C07F
:100510000000C4FB442740F963E080E00E944101F1
:10052000C5FB442740F964E080E00E944101C6FB1E
:10053000442740F965E080E00E9441014C2F441FB0
:100540004427441F66E080E00E94410189EF90E06B
:100550000197F1F700C0000040E062E080E00E94F7
:10056000410189EF90E00197F1F700C0000041E000
:1005700062E080E00E94410189EF90E00197F1F78D
:1005800000C000004C2F417063E080E00E944101F8
:10059000C1FB442740F964E080E00E944101C2FBB6
:1005A000442740F965E080E00E944101C3FB4427F5
:1005B00040F966E080E00E94410189EF90E00197F8
:1005C000F1F700C0000040E062E080E00E944101DD
:1005D00089EF90E00197F1F700C00000CF910895F6
:1005E00041E061E080E00E94CE0041E062E080E016
:1005F0000E94CE0087E893E10197F1F700C0000068
:1006000041E063E080E00E94CE0041E064E080E0F1
:100610000E94CE0041E065E080E00E94CE0041E013
:1006200066E080E00E94CE0083E30E94710282E3D4
:100630000E94710288E20E9471028CE00E947102A5
:1006400081E00E9471020895CF93C82F41E061E0DC
:1006500080E00E94410189EF90E00197F1F700C02E
:10066000000041E062E080E00E94410189EF90E0FB
:100670000197F1F700C00000C4FB442740F963E094
:1006800080E00E944101C5FB442740F964E080E01E
:100690000E944101C6FB442740F965E080E00E94CA
:1006A00041014C2F441F4427441F66E080E00E9414
:1006B000410189EF90E00197F1F700C0000040E0B0
:1006C00062E080E00E94410189EF90E00197F1F73C
:1006D00000C0000041E062E080E00E94410189EF3B
:1006E00090E00197F1F700C000004C2F417063E0EB
:1006F00080E00E944101C1FB442740F964E080E0B2
:100700000E944101C2FB442740F965E080E00E945D
:100710004101C3FB442740F966E080E00E944101AB
:1007200089EF90E00197F1F700C0000040E062E03F
:1007300080E00E94410189EF90E00197F1F700C04D
:100740000000CF9108950F931F93CF93FC018081F8
:10075000882359F08F01C0E00E942403CF5FF80185
:10076000EC0FF11D80818111F7CFCF911F910F9177
:100770000895813041F028F0823041F0833049F013
:100780000AC0962F08C090E4960F05C090E1960F1E
:1007900002C090E5960F892F80680E94710208952B
:1007A000CF93DF93EA010E94B903CE010E94A30315
:1007B000DF91CF910895CF93DF93CDB7DEB76097E8
:1007C0000FB6F894DEBF0FBECDBF4AE050E0BE01C9
:1007D0006F5F7F4F0E942607CE0101960E94A30300
:1007E00060960FB6F894DEBF0FBECDBFDF91CF91FC
:1007F00008950F931F93CF93DF93CDB7DEB7649720
:100800000FB6F894DEBF0FBECDBF8E010F5F1F4F36
:1008100022E030E042E050E00E940607C8010E945A
:10082000A30364960FB6F894DEBF0FBECDBFDF9171
:10083000CF911F910F91089581E00E947102089558
:100840000E94F00240E650E063E080E00E94D003A6
:100850002FE38DE093E0215080409040E1F700C00D
:1008600000000E941C0410E0C12CD12CE12CF12CC2
:10087000912CA12CB12C00E0612C712C812C512CDD
:100880000E94EA01C82F8A3000F5C82FD0E0CE01BF
:100890000E94DB0320E030E040E251E46C2D7D2D2E
:1008A0008E2D9F2D0E9493066B017C01BE01DD0FF2
:1008B000880B990B0E94E305A70196010E94FE0494
:1008C000C62ED72EE82EF92E8EC08D7F8D3221F0C8
:1008D00086ED8C0F823068F48C2F0E9424031C2F2D
:1008E0009C2CAD2CBE2C0F2DC62CD72CE82CF52C17
:1008F0007AC0CD3309F06BC01B3249F018F41A32BC
:1009000041F15CC01D32A1F01F32A1F157C060E07F
:1009100081E00E94B9032C2D3D2D4E2D5F2D692DB8
:100920007A2D8B2D902F0E94FE040E94F9035BC04C
:1009300060E081E00E94B9032C2D3D2D4E2D5F2DEE
:10094000692D7A2D8B2D902F0E94FD040E94F903B2
:100950004AC060E081E00E94B9032C2D3D2D4E2D50
:100960005F2D692D7A2D8B2D902F0E9493060E946A
:10097000F90339C0262D372D482D552D6C2D7D2D91
:100980008E2D9F2D0E946A05882389F060E081E00A
:100990000E94B9032C2D3D2D4E2D5F2D692D7A2DF2
:1009A0008B2D902F0E946F050E94F9031CC04BE60F
:1009B00050E060E080E00E94D00362CF60E081E020
:1009C0000E94B90386E790E00E94A3030CC0C336DF
:1009D00051F40E941C04C62CD72CE82CF52C962C24
:1009E000A72CB82C052D2FE986E891E021508040F6
:1009F0009040E1F700C0000043CF5058BB27AA2722
:100A00000E9415050C9459060E944B0638F00E946E
:100A1000520620F039F49F3F19F426F40C9448064E
:100A20000EF4E095E7FB0C944206E92F0E946A065B
:100A300058F3BA17620773078407950720F079F413
:100A4000A6F50C948C060EF4E0950B2EBA2FA02D73
:100A50000B01B90190010C01CA01A0011124FF276B
:100A6000591B99F0593F50F4503E68F11A16F04066
:100A7000A22F232F342F4427585FF3CF4695379565
:100A80002795A795F0405395C9F77EF41F16BA0B2A
:100A9000620B730B840BBAF09150A1F0FF0FBB1FD8
:100AA000661F771F881FC2F70EC0BA0F621F731F21
:100AB000841F48F4879577956795B795F7959E3F7E
:100AC00008F0B0CF9395880F08F09927EE0F97950F
:100AD000879508950E941E0608F481E008950E94FB
:100AE00083050C9459060E94520658F00E944B064A
:100AF00040F029F45F3F29F00C94420651110C9408
:100B00008D060C9448060E946A0668F39923B1F397
:100B1000552391F3951B550BBB27AA276217730723
:100B2000840738F09F5F5F4F220F331F441FAA1FB7
:100B3000A9F335D00E2E3AF0E0E832D09150504073
:100B4000E695001CCAF72BD0FE2F29D0660F771F21
:100B5000881FBB1F261737074807AB07B0E809F007
:100B6000BB0B802DBF01FF2793585F4F3AF09E3F8C
:100B7000510578F00C9442060C948D065F3FE4F327
:100B8000983ED4F3869577956795B795F7959F5FCF
:100B9000C9F7880F911D9695879597F90895E1E01B
:100BA000660F771F881FBB1F621773078407BA077A
:100BB00020F0621B730B840BBA0BEE1F88F7E095D5
:100BC0000895E89409C097FB3EF490958095709540
:100BD00061957F4F8F4F9F4F9923A9F0F92F96E989
:100BE000BB279395F695879577956795B795F111FE
:100BF000F8CFFAF4BB0F11F460FF1BC06F5F7F4F9B
:100C00008F4F9F4F16C0882311F096E911C07723AC
:100C100021F09EE8872F762F05C0662371F096E8B5
:100C2000862F70E060E02AF09A95660F771F881F84
:100C3000DAF7880F9695879597F90895990F000828
:100C4000550FAA0BE0E8FEEF16161706E807F9079E
:100C5000C0F012161306E407F50798F0621B730B39
:100C6000840B950B39F40A2661F0232B242B252BBA
:100C700021F408950A2609F4A140A6958FEF811D5D
:100C8000811D089597F99F6780E870E060E00895FE
:100C90009FEF80EC089500240A9416161706180694
:100CA0000906089500240A94121613061406050670
:100CB0000895092E0394000C11F4882352F0BB0F01
:100CC00040F4BF2B11F460FF04C06F5F7F4F8F4F64
:100CD0009F4F089557FD9058440F551F59F05F3F9F
:100CE00071F04795880F97FB991F61F09F3F79F04E
:100CF00087950895121613061406551FF2CF4695D0
:100D0000F1DF08C0161617061806991FF1CF869551
:100D10007105610508940895E894BB276627772735
:100D2000CB0197F908950E94A6060C9459060E94DB
:100D30004B0638F00E94520620F0952311F00C94D7
:100D400042060C94480611240C948D060E946A06F3
:100D500070F3959FC1F3950F50E0551F629FF0010E
:100D6000729FBB27F00DB11D639FAA27F00DB11D27
:100D7000AA1F649F6627B00DA11D661F829F2227B0
:100D8000B00DA11D621F739FB00DA11D621F839F37
:100D9000A00D611D221F749F3327A00D611D231F0D
:100DA000849F600D211D822F762F6A2F11249F575B
:100DB00050409AF0F1F088234AF0EE0FFF1FBB1F5E
:100DC000661F771F881F91505040A9F79E3F51051D
:100DD00080F00C9442060C948D065F3FE4F3983E3D
:100DE000D4F3869577956795B795F795E7959F5FC7
:100DF000C1F7FE2B880F911D9695879597F9089559
:100E0000EE0FFF1F0590F491E02D0994EF920F93E0
:100E10001F93CF93DF93E80147FD02C034E001C088
:100E200034E1042E000C550B57FF03C0519541953A
:100E30005109E32E022F242FAE010E945607CE0146
:100E4000DF91CF911F910F91EF9008954532510599
:100E500020F4423010F00C943107FB011082CB01DA
:100E60000895BB274A3031F4992322F4BDE29095CE
:100E700081959F4F0C943D07BB27FB015527AA275F
:100E8000880F991FAA1FA41710F0A41B8395505117
:100E9000B9F7A05DAA3308F0A95DA193009779F78F
:100EA000B111B1931192CB010C948809A9E0B0E083
:100EB000ECE5F7E00C949E096A01122FB02E2BE3AB
:100EC000201720F0FF24F394F00E02C02CE3F22E42
:100ED0000F2D27E0AE014F5F5F4F0E94B008BC01AD
:100EE0004981842F8970813031F0E1FC06C0E0FE39
:100EF00006C090E205C09DE203C09BE201C090E005
:100F00005E2D507143FF3CC0911102C083E001C0CF
:100F100084E0811718F4212F281B01C020E0511113
:100F20000BC0F601822F30E2882319F031938150F3
:100F3000FBCFC20ED11C20E0992329F0D6019C934F
:100F4000F60131966F01C6010396E2FE0AC03EE447
:100F5000D6013C9341E411964C93119712963C9321
:100F600006C03EE6F601308341E641833283FC0150
:100F7000322F40E2332309F442C041933150FACF7B
:100F800042FF44C0911102C083E001C084E0811798
:100F900018F4212F281B01C020E051110BC0F601CD
:100FA000822F30E2882319F031938150FBCFC20E9B
:100FB000D11C20E0992329F0D6019C93F6013196AB
:100FC0006F01C6010396E2FE0BC039E4D6013C93E3
:100FD0003EE411963C93119736E412963C9307C079
:100FE00039E6F60130833EE6318336E63283FC0192
:100FF000322F40E2332319F041933150FBCFFC01F3
:10100000E20FF11D10828EEF9FEFA6C021E030E0CD
:10101000911102C020E030E0161617061CF4FB0107
:10102000319602C0E1E0F0E02E0F3F1FBB2021F01F
:10103000EB2DF0E0319602C0E0E0F0E02E0F3F1F14
:10104000E12FF0E02E173F071CF4121B212F01C0E7
:1010500020E08E2D887159F4F601822F30E288232A
:1010600019F031938150FBCFC20ED11C20E099239F
:1010700029F0D6019C93F60131966F0151110BC0F6
:10108000F601822F90E3882319F091938150FBCFD2
:10109000C20ED11C20E00F2D060F9A81342F307123
:1010A00044FF03C0913309F40150101624F40930B1
:1010B00018F008E001C001E0AB0177FF02C040E09A
:1010C00050E0FB01E41BF50BA1E0B0E0AC0FBD1F4D
:1010D000EA0FFB1F8EE2A82E4B01801A91080B2D00
:1010E00010E01195019511094F3FBFEF5B0721F407
:1010F000D601AC9211966D01641775072CF0841619
:10110000950614F4818101C080E341505109319664
:10111000D60111967D014017510724F0D6018C931A
:101120006701E2CF6417750739F4963320F49533DD
:1011300019F4311101C081E3F6018083F701822F98
:1011400090E2882319F091938150FBCFF701E20FD1
:10115000F11D108280E090E02996ECE00C94BA0931
:10116000283008F027E03327DA01990F311D87FD79
:10117000916000966105710539F432602E5F3D93F0
:1011800030E32A95E1F708959F3F30F080387105EC
:10119000610509F03C5F3C5F3D93913008F0806849
:1011A000911DDF93CF931F930F93FF92EF92192F0F
:1011B000987F9695E92F96959695E90FFF27E2532C
:1011C000FF4F99273327EE24FF24A701E70105905D
:1011D0000894079428F4360FE71EF81E491F511D86
:1011E000660F771F881F991F0694A1F70590079433
:1011F00028F4E70EF81E491F561FC11D770F881FE0
:10120000991F661F0694A1F70590079428F4F80E1D
:10121000491F561FC71FD11D880F991F661F771FB3
:101220000694A1F70590079420F4490F561FC71F95
:10123000D81F990F661F771F881F0694A9F78491FE
:101240001095177041F0D695C79557954795F79427
:10125000E7941A95C1F7E4E7F0E0689415901591CA
:1012600035916591959105907FE27395E118F10AAA
:10127000430B560BC90BD009C0F7E10CF11E431FFD
:10128000561FC91FD01D7EF4703311F48A95E6CF26
:10129000E894015030F0080F0AF40027021708F410
:1012A000202F2395022F7A3328F079E37D932A9516
:1012B000E9F710C07D932A9589F60694979567956E
:1012C000379517951794E118F10A430B560BC90B84
:1012D000D00998F023957E9173957A3308F070E3E6
:1012E0007C932013B8F77E9170617D9330F08395E5
:1012F00071E37D9370E32A95E1F71124EF90FF905D
:101300000F911F91CF91DF91992787FD90950895B7
:10131000DC01FC01672F71917723E1F7329704C05C
:101320007C916D9370836291AE17BF07C8F30895E7
:101330002F923F924F925F926F927F928F929F92E5
:10134000AF92BF92CF92DF92EF92FF920F931F93D3
:10135000CF93DF93CDB7DEB7CA1BDB0B0FB6F89484
:10136000DEBF0FBECDBF09942A88398848885F84C4
:101370006E847D848C849B84AA84B984C884DF8035
:10138000EE80FD800C811B81AA81B981CE0FD11D19
:101390000FB6F894DEBF0FBECDBFED010895F894EF
:0213A000FFCF7D
:1013A20043616C63756C61746F72004D6174682087
:1013B2004572726F72004E4F204F70657261746990
:0413C2006F6E00004A
:00000001FF
